{
  "contractName": "CryptoBallers",
  "abi": [
    {
      "constant": true,
      "inputs": [
        {
          "name": "interfaceId",
          "type": "bytes4"
        }
      ],
      "name": "supportsInterface",
      "outputs": [
        {
          "name": "",
          "type": "bool"
        }
      ],
      "payable": false,
      "stateMutability": "view",
      "type": "function"
    },
    {
      "constant": true,
      "inputs": [
        {
          "name": "tokenId",
          "type": "uint256"
        }
      ],
      "name": "getApproved",
      "outputs": [
        {
          "name": "",
          "type": "address"
        }
      ],
      "payable": false,
      "stateMutability": "view",
      "type": "function"
    },
    {
      "constant": false,
      "inputs": [
        {
          "name": "to",
          "type": "address"
        },
        {
          "name": "tokenId",
          "type": "uint256"
        }
      ],
      "name": "approve",
      "outputs": [],
      "payable": false,
      "stateMutability": "nonpayable",
      "type": "function"
    },
    {
      "constant": false,
      "inputs": [
        {
          "name": "from",
          "type": "address"
        },
        {
          "name": "to",
          "type": "address"
        },
        {
          "name": "tokenId",
          "type": "uint256"
        }
      ],
      "name": "transferFrom",
      "outputs": [],
      "payable": false,
      "stateMutability": "nonpayable",
      "type": "function"
    },
    {
      "constant": false,
      "inputs": [
        {
          "name": "from",
          "type": "address"
        },
        {
          "name": "to",
          "type": "address"
        },
        {
          "name": "tokenId",
          "type": "uint256"
        }
      ],
      "name": "safeTransferFrom",
      "outputs": [],
      "payable": false,
      "stateMutability": "nonpayable",
      "type": "function"
    },
    {
      "constant": true,
      "inputs": [
        {
          "name": "tokenId",
          "type": "uint256"
        }
      ],
      "name": "ownerOf",
      "outputs": [
        {
          "name": "",
          "type": "address"
        }
      ],
      "payable": false,
      "stateMutability": "view",
      "type": "function"
    },
    {
      "constant": true,
      "inputs": [
        {
          "name": "owner",
          "type": "address"
        }
      ],
      "name": "balanceOf",
      "outputs": [
        {
          "name": "",
          "type": "uint256"
        }
      ],
      "payable": false,
      "stateMutability": "view",
      "type": "function"
    },
    {
      "constant": true,
      "inputs": [
        {
          "name": "",
          "type": "uint256"
        }
      ],
      "name": "ballers",
      "outputs": [
        {
          "name": "name",
          "type": "string"
        },
        {
          "name": "level",
          "type": "uint256"
        },
        {
          "name": "offenseSkill",
          "type": "uint256"
        },
        {
          "name": "defenseSkill",
          "type": "uint256"
        },
        {
          "name": "winCount",
          "type": "uint256"
        },
        {
          "name": "lossCount",
          "type": "uint256"
        }
      ],
      "payable": false,
      "stateMutability": "view",
      "type": "function"
    },
    {
      "constant": false,
      "inputs": [
        {
          "name": "to",
          "type": "address"
        },
        {
          "name": "approved",
          "type": "bool"
        }
      ],
      "name": "setApprovalForAll",
      "outputs": [],
      "payable": false,
      "stateMutability": "nonpayable",
      "type": "function"
    },
    {
      "constant": false,
      "inputs": [
        {
          "name": "from",
          "type": "address"
        },
        {
          "name": "to",
          "type": "address"
        },
        {
          "name": "tokenId",
          "type": "uint256"
        },
        {
          "name": "_data",
          "type": "bytes"
        }
      ],
      "name": "safeTransferFrom",
      "outputs": [],
      "payable": false,
      "stateMutability": "nonpayable",
      "type": "function"
    },
    {
      "constant": true,
      "inputs": [
        {
          "name": "owner",
          "type": "address"
        },
        {
          "name": "operator",
          "type": "address"
        }
      ],
      "name": "isApprovedForAll",
      "outputs": [
        {
          "name": "",
          "type": "bool"
        }
      ],
      "payable": false,
      "stateMutability": "view",
      "type": "function"
    },
    {
      "inputs": [],
      "payable": false,
      "stateMutability": "nonpayable",
      "type": "constructor"
    },
    {
      "anonymous": false,
      "inputs": [
        {
          "indexed": true,
          "name": "from",
          "type": "address"
        },
        {
          "indexed": true,
          "name": "to",
          "type": "address"
        },
        {
          "indexed": true,
          "name": "tokenId",
          "type": "uint256"
        }
      ],
      "name": "Transfer",
      "type": "event"
    },
    {
      "anonymous": false,
      "inputs": [
        {
          "indexed": true,
          "name": "owner",
          "type": "address"
        },
        {
          "indexed": true,
          "name": "approved",
          "type": "address"
        },
        {
          "indexed": true,
          "name": "tokenId",
          "type": "uint256"
        }
      ],
      "name": "Approval",
      "type": "event"
    },
    {
      "anonymous": false,
      "inputs": [
        {
          "indexed": true,
          "name": "owner",
          "type": "address"
        },
        {
          "indexed": true,
          "name": "operator",
          "type": "address"
        },
        {
          "indexed": false,
          "name": "approved",
          "type": "bool"
        }
      ],
      "name": "ApprovalForAll",
      "type": "event"
    },
    {
      "constant": false,
      "inputs": [],
      "name": "claimFreeBaller",
      "outputs": [],
      "payable": false,
      "stateMutability": "nonpayable",
      "type": "function"
    },
    {
      "constant": true,
      "inputs": [],
      "name": "getNumBallers",
      "outputs": [
        {
          "name": "",
          "type": "uint256"
        }
      ],
      "payable": false,
      "stateMutability": "view",
      "type": "function"
    },
    {
      "constant": true,
      "inputs": [],
      "name": "ballerPrice",
      "outputs": [
        {
          "name": "",
          "type": "uint256"
        }
      ],
      "payable": false,
      "stateMutability": "view",
      "type": "function"
    },
    {
      "constant": false,
      "inputs": [],
      "name": "buyBaller",
      "outputs": [],
      "payable": true,
      "stateMutability": "payable",
      "type": "function"
    },
    {
      "constant": false,
      "inputs": [
        {
          "name": "_ballerId",
          "type": "uint256"
        },
        {
          "name": "_opponentId",
          "type": "uint256"
        }
      ],
      "name": "playBall",
      "outputs": [],
      "payable": false,
      "stateMutability": "nonpayable",
      "type": "function"
    },
    {
      "constant": false,
      "inputs": [
        {
          "name": "_ballerId",
          "type": "uint256"
        },
        {
          "name": "_newName",
          "type": "string"
        }
      ],
      "name": "changeName",
      "outputs": [],
      "payable": false,
      "stateMutability": "nonpayable",
      "type": "function"
    }
  ],
  "bytecode": "0x608060405267016345785d8a000060085534801561001c57600080fd5b506100586301ffc9a77c0100000000000000000000000000000000000000000000000000000000026100d9640100000000026401000000009004565b6100936380ac58cd7c0100000000000000000000000000000000000000000000000000000000026100d9640100000000026401000000009004565b33600560006101000a81548173ffffffffffffffffffffffffffffffffffffffff021916908373ffffffffffffffffffffffffffffffffffffffff160217905550610196565b63ffffffff7c010000000000000000000000000000000000000000000000000000000002817bffffffffffffffffffffffffffffffffffffffffffffffffffffffff19161415151561012a57600080fd5b6001600080837bffffffffffffffffffffffffffffffffffffffffffffffffffffffff19167bffffffffffffffffffffffffffffffffffffffffffffffffffffffff1916815260200190815260200160002060006101000a81548160ff02191690831515021790555050565b611e1380620001a66000396000f3006080604052600436106100f1576000357c0100000000000000000000000000000000000000000000000000000000900463ffffffff16806301ffc9a7146100f6578063081812fc1461015a578063095ea7b3146101c757806314d895761461021457806323b872dd1461021e5780632ec9a4c91461028b5780633849defa146102a25780633de19ccd146102d957806342842e0e146103045780636352211e1461037157806370a08231146103de5780638fc44845146104355780639eaf2bd014610460578063a22cb46514610529578063b88d4fde14610578578063c39cbef11461062b578063e985e9c514610670575b600080fd5b34801561010257600080fd5b5061014060048036038101908080357bffffffffffffffffffffffffffffffffffffffffffffffffffffffff191690602001909291905050506106eb565b604051808215151515815260200191505060405180910390f35b34801561016657600080fd5b5061018560048036038101908080359060200190929190505050610752565b604051808273ffffffffffffffffffffffffffffffffffffffff1673ffffffffffffffffffffffffffffffffffffffff16815260200191505060405180910390f35b3480156101d357600080fd5b50610212600480360381019080803573ffffffffffffffffffffffffffffffffffffffff169060200190929190803590602001909291905050506107a3565b005b61021c6108e8565b005b34801561022a57600080fd5b50610289600480360381019080803573ffffffffffffffffffffffffffffffffffffffff169060200190929190803573ffffffffffffffffffffffffffffffffffffffff169060200190929190803590602001909291905050506109cd565b005b34801561029757600080fd5b506102a0610a9c565b005b3480156102ae57600080fd5b506102d76004803603810190808035906020019092919080359060200190929190505050610c27565b005b3480156102e557600080fd5b506102ee610e66565b6040518082815260200191505060405180910390f35b34801561031057600080fd5b5061036f600480360381019080803573ffffffffffffffffffffffffffffffffffffffff169060200190929190803573ffffffffffffffffffffffffffffffffffffffff16906020019092919080359060200190929190505050610e70565b005b34801561037d57600080fd5b5061039c60048036038101908080359060200190929190505050610e91565b604051808273ffffffffffffffffffffffffffffffffffffffff1673ffffffffffffffffffffffffffffffffffffffff16815260200191505060405180910390f35b3480156103ea57600080fd5b5061041f600480360381019080803573ffffffffffffffffffffffffffffffffffffffff169060200190929190505050610f0f565b6040518082815260200191505060405180910390f35b34801561044157600080fd5b5061044a610f93565b6040518082815260200191505060405180910390f35b34801561046c57600080fd5b5061048b60048036038101908080359060200190929190505050610fa0565b6040518080602001878152602001868152602001858152602001848152602001838152602001828103825288818151815260200191508051906020019080838360005b838110156104e95780820151818401526020810190506104ce565b50505050905090810190601f1680156105165780820380516001836020036101000a031916815260200191505b5097505050505050505060405180910390f35b34801561053557600080fd5b50610576600480360381019080803573ffffffffffffffffffffffffffffffffffffffff169060200190929190803515159060200190929190505050611083565b005b34801561058457600080fd5b50610629600480360381019080803573ffffffffffffffffffffffffffffffffffffffff169060200190929190803573ffffffffffffffffffffffffffffffffffffffff16906020019092919080359060200190929190803590602001908201803590602001908080601f01602080910402602001604051908101604052809392919081815260200183838082843782019150505050505091929192905050506111bf565b005b34801561063757600080fd5b5061066e600480360381019080803590602001909291908035906020019082018035906020019190919293919293905050506111e7565b005b34801561067c57600080fd5b506106d1600480360381019080803573ffffffffffffffffffffffffffffffffffffffff169060200190929190803573ffffffffffffffffffffffffffffffffffffffff1690602001909291905050506113b1565b604051808215151515815260200191505060405180910390f35b6000806000837bffffffffffffffffffffffffffffffffffffffffffffffffffffffff19167bffffffffffffffffffffffffffffffffffffffffffffffffffffffff1916815260200190815260200160002060009054906101000a900460ff169050919050565b600061075d82611445565b151561076857600080fd5b6002600083815260200190815260200160002060009054906101000a900473ffffffffffffffffffffffffffffffffffffffff169050919050565b60006107ae82610e91565b90508073ffffffffffffffffffffffffffffffffffffffff168373ffffffffffffffffffffffffffffffffffffffff16141515156107eb57600080fd5b8073ffffffffffffffffffffffffffffffffffffffff163373ffffffffffffffffffffffffffffffffffffffff16148061082b575061082a81336113b1565b5b151561083657600080fd5b826002600084815260200190815260200160002060006101000a81548173ffffffffffffffffffffffffffffffffffffffff021916908373ffffffffffffffffffffffffffffffffffffffff160217905550818373ffffffffffffffffffffffffffffffffffffffff168273ffffffffffffffffffffffffffffffffffffffff167f8c5be1e5ebec7d5bd14f71427d1e84f3dd0314c0f7b2291e5b200ac8c7c3b92560405160405180910390a4505050565b6008543410151515610988576040517f08c379a00000000000000000000000000000000000000000000000000000000081526004018080602001828103825260218152602001807f596f7520646f206e6f7420686176652073756666696369656e742066756e647381526020017f2e0000000000000000000000000000000000000000000000000000000000000081525060400191505060405180910390fd5b6109cb6040805190810160405280600681526020017f41726e6f6c64000000000000000000000000000000000000000000000000000081525060036007806114b7565b565b6109d73382611584565b15156109e257600080fd5b600073ffffffffffffffffffffffffffffffffffffffff168273ffffffffffffffffffffffffffffffffffffffff1614151515610a1e57600080fd5b610a288382611619565b610a32838261171c565b610a3c828261184b565b808273ffffffffffffffffffffffffffffffffffffffff168473ffffffffffffffffffffffffffffffffffffffff167fddf252ad1be2c89b69c2b068fc378daa952ba7f163c4a11628f55a4df523b3ef60405160405180910390a4505050565b60001515600760003373ffffffffffffffffffffffffffffffffffffffff1673ffffffffffffffffffffffffffffffffffffffff16815260200190815260200160002060009054906101000a900460ff161515141515610b8a576040517f08c379a00000000000000000000000000000000000000000000000000000000081526004018080602001828103825260298152602001807f596f7520616c7265616479206861766520636c61696d656420796f757220667281526020017f656562616c6c65722e000000000000000000000000000000000000000000000081525060400191505060405180910390fd5b610bcd6040805190810160405280600481526020017f4a756465000000000000000000000000000000000000000000000000000000008152506002600a806114b7565b6001600760003373ffffffffffffffffffffffffffffffffffffffff1673ffffffffffffffffffffffffffffffffffffffff16815260200190815260200160002060006101000a81548160ff021916908315150217905550565b81610c3181610e91565b73ffffffffffffffffffffffffffffffffffffffff163373ffffffffffffffffffffffffffffffffffffffff16141515610cf9576040517f08c379a00000000000000000000000000000000000000000000000000000000081526004018080602001828103825260238152602001807f55736572206973206e6f7420746865206f776e6572206f662074686520746f6b81526020017f656e2e000000000000000000000000000000000000000000000000000000000081525060400191505060405180910390fd5b600682815481101515610d0857fe5b906000526020600020906006020160030154600684815481101515610d2957fe5b9060005260206000209060060201600201541115610dd3576001600684815481101515610d5257fe5b9060005260206000209060060201600401600082825401925050819055506001600683815481101515610d8157fe5b9060005260206000209060060201600501600082825401925050819055506001600684815481101515610db057fe5b906000526020600020906006020160010160008282540192505081905550610e61565b6001600683815481101515610de457fe5b9060005260206000209060060201600401600082825401925050819055506001600684815481101515610e1357fe5b9060005260206000209060060201600501600082825401925050819055506001600683815481101515610e4257fe5b9060005260206000209060060201600101600082825401925050819055505b505050565b6000600854905090565b610e8c83838360206040519081016040528060008152506111bf565b505050565b6000806001600084815260200190815260200160002060009054906101000a900473ffffffffffffffffffffffffffffffffffffffff169050600073ffffffffffffffffffffffffffffffffffffffff168173ffffffffffffffffffffffffffffffffffffffff1614151515610f0657600080fd5b80915050919050565b60008073ffffffffffffffffffffffffffffffffffffffff168273ffffffffffffffffffffffffffffffffffffffff1614151515610f4c57600080fd5b600360008373ffffffffffffffffffffffffffffffffffffffff1673ffffffffffffffffffffffffffffffffffffffff168152602001908152602001600020549050919050565b6000600680549050905090565b600681815481101515610faf57fe5b9060005260206000209060060201600091509050806000018054600181600116156101000203166002900480601f01602080910402602001604051908101604052809291908181526020018280546001816001161561010002031660029004801561105b5780601f106110305761010080835404028352916020019161105b565b820191906000526020600020905b81548152906001019060200180831161103e57829003601f168201915b5050505050908060010154908060020154908060030154908060040154908060050154905086565b3373ffffffffffffffffffffffffffffffffffffffff168273ffffffffffffffffffffffffffffffffffffffff16141515156110be57600080fd5b80600460003373ffffffffffffffffffffffffffffffffffffffff1673ffffffffffffffffffffffffffffffffffffffff16815260200190815260200160002060008473ffffffffffffffffffffffffffffffffffffffff1673ffffffffffffffffffffffffffffffffffffffff16815260200190815260200160002060006101000a81548160ff0219169083151502179055508173ffffffffffffffffffffffffffffffffffffffff163373ffffffffffffffffffffffffffffffffffffffff167f17307eab39ab6107e8899845ad3d59bd9653f200f220920489ca2b5937696c3183604051808215151515815260200191505060405180910390a35050565b6111ca8484846109cd565b6111d6848484846119a5565b15156111e157600080fd5b50505050565b600283816006828154811015156111fa57fe5b9060005260206000209060060201600101541115156112a7576040517f08c379a00000000000000000000000000000000000000000000000000000000081526004018080602001828103825260228152602001807f42616c6c65722068617320746f2062652061626f76652074686973206c65766581526020017f6c2e00000000000000000000000000000000000000000000000000000000000081525060400191505060405180910390fd5b846112b181610e91565b73ffffffffffffffffffffffffffffffffffffffff163373ffffffffffffffffffffffffffffffffffffffff16141515611379576040517f08c379a00000000000000000000000000000000000000000000000000000000081526004018080602001828103825260238152602001807f55736572206973206e6f7420746865206f776e6572206f662074686520746f6b81526020017f656e2e000000000000000000000000000000000000000000000000000000000081525060400191505060405180910390fd5b848460068881548110151561138a57fe5b906000526020600020906006020160000191906113a8929190611cc2565b50505050505050565b6000600460008473ffffffffffffffffffffffffffffffffffffffff1673ffffffffffffffffffffffffffffffffffffffff16815260200190815260200160002060008373ffffffffffffffffffffffffffffffffffffffff1673ffffffffffffffffffffffffffffffffffffffff16815260200190815260200160002060009054906101000a900460ff16905092915050565b6000806001600084815260200190815260200160002060009054906101000a900473ffffffffffffffffffffffffffffffffffffffff169050600073ffffffffffffffffffffffffffffffffffffffff168173ffffffffffffffffffffffffffffffffffffffff161415915050919050565b6000600660c060405190810160405280878152602001868152602001858152602001848152602001600081526020016000815250908060018154018082558091505090600182039060005260206000209060060201600090919290919091506000820151816000019080519060200190611532929190611d42565b506020820151816001015560408201518160020155606082015181600301556080820151816004015560a08201518160050155505050600160068054905003905061157d3382611bc7565b5050505050565b60008061159083610e91565b90508073ffffffffffffffffffffffffffffffffffffffff168473ffffffffffffffffffffffffffffffffffffffff1614806115ff57508373ffffffffffffffffffffffffffffffffffffffff166115e784610752565b73ffffffffffffffffffffffffffffffffffffffff16145b80611610575061160f81856113b1565b5b91505092915050565b8173ffffffffffffffffffffffffffffffffffffffff1661163982610e91565b73ffffffffffffffffffffffffffffffffffffffff1614151561165b57600080fd5b600073ffffffffffffffffffffffffffffffffffffffff166002600083815260200190815260200160002060009054906101000a900473ffffffffffffffffffffffffffffffffffffffff1673ffffffffffffffffffffffffffffffffffffffff161415156117185760006002600083815260200190815260200160002060006101000a81548173ffffffffffffffffffffffffffffffffffffffff021916908373ffffffffffffffffffffffffffffffffffffffff1602179055505b5050565b8173ffffffffffffffffffffffffffffffffffffffff1661173c82610e91565b73ffffffffffffffffffffffffffffffffffffffff1614151561175e57600080fd5b6117b16001600360008573ffffffffffffffffffffffffffffffffffffffff1673ffffffffffffffffffffffffffffffffffffffff16815260200190815260200160002054611c6d90919063ffffffff16565b600360008473ffffffffffffffffffffffffffffffffffffffff1673ffffffffffffffffffffffffffffffffffffffff1681526020019081526020016000208190555060006001600083815260200190815260200160002060006101000a81548173ffffffffffffffffffffffffffffffffffffffff021916908373ffffffffffffffffffffffffffffffffffffffff1602179055505050565b600073ffffffffffffffffffffffffffffffffffffffff166001600083815260200190815260200160002060009054906101000a900473ffffffffffffffffffffffffffffffffffffffff1673ffffffffffffffffffffffffffffffffffffffff161415156118b957600080fd5b816001600083815260200190815260200160002060006101000a81548173ffffffffffffffffffffffffffffffffffffffff021916908373ffffffffffffffffffffffffffffffffffffffff16021790555061195e6001600360008573ffffffffffffffffffffffffffffffffffffffff1673ffffffffffffffffffffffffffffffffffffffff16815260200190815260200160002054611c8e90919063ffffffff16565b600360008473ffffffffffffffffffffffffffffffffffffffff1673ffffffffffffffffffffffffffffffffffffffff168152602001908152602001600020819055505050565b6000806119c78573ffffffffffffffffffffffffffffffffffffffff16611caf565b15156119d65760019150611bbe565b8473ffffffffffffffffffffffffffffffffffffffff1663150b7a02338887876040518563ffffffff167c0100000000000000000000000000000000000000000000000000000000028152600401808573ffffffffffffffffffffffffffffffffffffffff1673ffffffffffffffffffffffffffffffffffffffff1681526020018473ffffffffffffffffffffffffffffffffffffffff1673ffffffffffffffffffffffffffffffffffffffff16815260200183815260200180602001828103825283818151815260200191508051906020019080838360005b83811015611acb578082015181840152602081019050611ab0565b50505050905090810190601f168015611af85780820380516001836020036101000a031916815260200191505b5095505050505050602060405180830381600087803b158015611b1a57600080fd5b505af1158015611b2e573d6000803e3d6000fd5b505050506040513d6020811015611b4457600080fd5b8101908080519060200190929190505050905063150b7a027c0100000000000000000000000000000000000000000000000000000000027bffffffffffffffffffffffffffffffffffffffffffffffffffffffff1916817bffffffffffffffffffffffffffffffffffffffffffffffffffffffff19161491505b50949350505050565b600073ffffffffffffffffffffffffffffffffffffffff168273ffffffffffffffffffffffffffffffffffffffff1614151515611c0357600080fd5b611c0d828261184b565b808273ffffffffffffffffffffffffffffffffffffffff16600073ffffffffffffffffffffffffffffffffffffffff167fddf252ad1be2c89b69c2b068fc378daa952ba7f163c4a11628f55a4df523b3ef60405160405180910390a45050565b600080838311151515611c7f57600080fd5b82840390508091505092915050565b6000808284019050838110151515611ca557600080fd5b8091505092915050565b600080823b905060008111915050919050565b828054600181600116156101000203166002900490600052602060002090601f016020900481019282601f10611d0357803560ff1916838001178555611d31565b82800160010185558215611d31579182015b82811115611d30578235825591602001919060010190611d15565b5b509050611d3e9190611dc2565b5090565b828054600181600116156101000203166002900490600052602060002090601f016020900481019282601f10611d8357805160ff1916838001178555611db1565b82800160010185558215611db1579182015b82811115611db0578251825591602001919060010190611d95565b5b509050611dbe9190611dc2565b5090565b611de491905b80821115611de0576000816000905550600101611dc8565b5090565b905600a165627a7a723058205cc9f859d036c94c65a63318e937820026685c1797fad78651fcc9c57779fca20029",
  "source": "pragma solidity ^0.4.24;\n\nimport './ERC721.sol';\n\ncontract CryptoBallers is ERC721 {\n\n    struct Baller {\n        string name;\n        uint level;\n        uint offenseSkill;\n        uint defenseSkill;\n        uint winCount;\n        uint lossCount;\n    }\n\n    address owner;\n    Baller[] public ballers;\n\n    // Mapping for if address has claimed their free baller\n    mapping(address => bool) claimedFreeBaller;\n\n    // Fee for buying a baller\n    uint ballerFee = 0.10 ether;\n\n    // /**\n    // * @dev Ensures ownership of the specified token ID\n    // * @param tokenId uint256 ID of the token to check\n    // */\n    modifier onlyOwnerOf(uint256 _tokenId) {\n        // TODO add your code\n        // _tokenOwner is mapping from ownerId to owner address\n        require(msg.sender == ownerOf(_tokenId), \"User is not the owner of the token.\");\n        _;\n    }\n\n    // /**\n    // * @dev Ensures ownership of contract\n    // */\n    modifier onlyOwner() {\n        // TODO add your code\n        require(msg.sender == owner, \"You are not the owner of the Contract.\");\n        _;\n    }\n\n    // /**\n    // * @dev Ensures baller has level above specified level\n    // * @param level uint level that the baller needs to be above\n    // * @ballerId uint ID of the Baller to check\n    // */\n    modifier aboveLevel(uint _level, uint _ballerId) {\n        // TODO add your code\n        // every Baller has a level as the Struct. What are the levels?\n        require(ballers[_ballerId].level > _level, \"Baller has to be above this level.\");\n        _;\n    }\n\n    constructor() public {\n        owner = msg.sender;\n    }\n\n    // /**\n    // * @dev Allows user to claim first free baller, ensure no address can claim more than one\n    // */\n    function claimFreeBaller() public {\n        // TODO add your code\n\n        //make sure person cannot claim freeballer again.\n        require(claimedFreeBaller[msg.sender] == false, \"You already have claimed your freeballer.\");\n\n        // create a baller\n        _createBaller(\"Jude\", 2, 10, 10);\n\n\n        // mark that the owner has claimed their freeballer\n        claimedFreeBaller[msg.sender] = true;\n    }\n\n    function getNumBallers() public view returns (uint){\n      return ballers.length;\n    }\n\n\n\n    /**\n    * @dev allows person to know how much it costs to buy a baller\n    */\n    function ballerPrice() public view returns (uint){\n      return ballerFee;\n    }\n\n    /**\n    * @dev Allows user to buy baller with set attributes\n    */\n    function buyBaller() public payable {\n        // TODO add your code\n\n        // Does the user have enough ether?\n        require(msg.value >= ballerFee, \"You do not have sufficient funds.\");\n\n        _createBaller(\"Arnold\", 3, 7, 7);\n    }\n\n\n\n    // /**\n    // * @dev Play a game with your baller and an opponent baller\n    // * If your baller has more offensive skill than your opponent's defensive skill\n    // * you win, your level goes up, the opponent loses, and vice versa.\n    // * If you win and your baller reaches level 5, you are awarded a new baller with a mix of traits\n    // * from your baller and your opponent's baller.\n    // * @param ballerId uint ID of the Baller initiating the game\n    // * @param targetId uint ID that the baller needs to be above\n    // */\n    function playBall(uint _ballerId, uint _opponentId) onlyOwnerOf(_ballerId) public {\n       // TODO add your code\n\n       // if your baller has more offensiveskill than your opponent, you win\n       if (ballers[_ballerId].offenseSkill > ballers[_opponentId].defenseSkill){\n           // then you win, change level count of your baller\n           ballers[_ballerId].winCount += 1;\n           ballers[_opponentId].lossCount += 1;\n           ballers[_ballerId].level += 1;\n       } else{\n           ballers[_opponentId].winCount += 1;\n           ballers[_ballerId].lossCount += 1;\n           ballers[_opponentId].level += 1;\n       }\n    }\n\n    // /**\n    // * @dev Changes the name of your baller if they are above level two\n    // * @param ballerId uint ID of the Baller who's name you want to change\n    // * @param newName string new name you want to give to your Baller\n    // */\n    function changeName(uint _ballerId, string _newName) external aboveLevel(2, _ballerId) onlyOwnerOf(_ballerId) {\n        // TODO add your code\n\n        // just off the cuff code.\n        ballers[_ballerId].name = _newName;\n    }\n\n//     /**\n//   * @dev Creates a baller based on the params given, adds them to the Baller array and mints a token\n//   * @param name string name of the Baller\n//   * @param level uint level of the Baller\n//   * @param offenseSkill offensive skill of the Baller\n//   * @param defenseSkill defensive skill of the Baller\n//   */\n    function _createBaller(string _name, uint _level, uint _offenseSkill, uint _defenseSkill) internal {\n        // TODO add your code\n\n        // figure this one out\n        //Baller storage baller1 = ballers[ballerId];\n\n\n        ballers.push(Baller(_name, _level, _offenseSkill, _defenseSkill, 0, 0));\n\n        uint256 tokenId = ballers.length - 1;\n\n        _mint(msg.sender, tokenId);\n\n\n\n    }\n\n    // /**\n    // * @dev Helper function for a new baller which averages the attributes of the level, attack, defense of the ballers\n    // * @param baller1 Baller first baller to average\n    // * @param baller2 Baller second baller to average\n    // * @return tuple of level, attack and defense\n    // */\n    function _breedBallers(Baller _baller1, Baller _baller2) internal pure returns (uint, uint, uint) {\n        uint level = _baller1.level.add(_baller2.level).div(2);\n        uint attack = _baller1.offenseSkill.add(_baller2.offenseSkill).div(2);\n        uint defense = _baller1.defenseSkill.add(_baller2.defenseSkill).div(2);\n        return (level, attack, defense);\n\n    }\n}\n",
  "sourcePath": "/Users/michaelroker/BlockGeeks/Project_Baller/CryptoBall_truffle/contracts/CryptoBallers.sol",
  "compiler": {
    "name": "solc",
    "version": "0.4.24+commit.e67f0147.Emscripten.clang"
  },
  "schemaVersion": "2.0.1",
  "updatedAt": "2018-11-21T17:49:48.449Z"
}